:1000000002308A00B02A0000FF00030E8301A10025
:100010000A08A0008A010408A2007708A300780853
:10002000A4007908A5007A08A60003170D08031399
:10003000A70003170F080313A80003170C080313E6
:10004000A90003170E080313AA00831383128C3030
:100050008400801E2D288C1A4E2822088400230834
:10006000F7002408F8002508F9002608FA002708F8
:1000700003178D000313280803178F0003132908A3
:1000800003178C0003132A0803178E00031320089C
:100090008A00210E8300FF0E7F0E09008A110A12CA
:1000A0008D29831606168616061786178312861460
:1000B0000000061500000317A70100300313061AFD
:1000C00001300317A70400300313861A0130F7002C
:1000D0000310F70D77080317A70400300313061B5E
:1000E0000130F700F70DF70DFC30F705770803171F
:1000F000A70400300313861B0130F700F70DF70D3E
:10010000F70DF830F70577080317A7042708F8005C
:100110007808A60003130611000006158F28902802
:100120000317A70100300313061A01300317A704B1
:1001300000300313861A0130F7000310F70D77081B
:100140000317A70400300313061B0130F700F70D57
:10015000F70DFC30F70577080317A70400300313E9
:10016000861B0130F700F70DF70DF70DF830F70596
:1001700077080317A7042708F8007808A5000313D9
:1001800006118316061286120613861383120317AE
:10019000260EF700F030F70577082504F800031362
:1001A000080003172618D82803130612DA280317A5
:1001B000031306160317A618E12803138612E32873
:1001C00003170313861603172619EA2803130613C9
:1001D000EC280317031306170317A619F3280313B4
:1001E0008613F5280317031386170000061502303F
:1001F000F700F70BF9280000061108008316061116
:100200000610861083120610512078080317A500E7
:10021000A51F0C2903130429A308031D1329031385
:10022000061015290317031306140000861000009A
:1002300006110317240EA5000F30A5052508A600FA
:100240000313D120031724080F39A500A6000313B8
:10025000D12008000317200B2E2931294030A1009E
:100260003229A10101301F02A10721088038A20014
:10027000A3012208A4000313FE2008001F308400FD
:1002800083170008031952290530F800F701F70B0E
:100290004729F80B46292E30F700F70B4D29502936
:1002A000800B4429080003171E08073A031303199B
:1002B00063290B3A03196A29063A03197629023A87
:1002C00003197E298529013003179F00A00003131D
:1002D0002A218C290317A3010130A4000313FE2057
:1002E000023003179F0003133E218C2901300317AE
:1002F0009F000230A00003132A218C290317A301B9
:100300001030A4000313FE208C2901300317A30032
:100310001E08A4000313FE200800AD122D0883164A
:10032000870083128716A030840083138403840A15
:100330008C1E98291808AC001A08F800AC1CA229D9
:1003400018121816780880000D300002031D972936
:1003500080010C3003179E0003135321A03084004A
:10036000831380080319CD2903179D0104089C00FD
:100370001D10831B1D1400089E0003135321031737
:100380001C08840083131D188317840A031DCB29BE
:100390000313850A03170313B1298C128A110A1259
:1003A0002D28412A0D050000003083168600831297
:1003B000AD122D0883168700831287122830031789
:1003C00091000C309200013093000630940003132A
:1003D000061106108610831606128612061386135F
:1003E0000611061086108312AB018B1BAB178B1303
:1003F0000F3003179F0003133E21AB1B8B170130F7
:10040000031790001008033C031C202A0313AB01C0
:100410008B1BAB178B1303300317A6000313D120DC
:10042000AB1B8B17AB018B1BAB178B130530031763
:100430009F0003133E21AB1B8B170317900A022A60
:100440000313AB018B1BAB178B1302300317A600F2
:100450000313D120AB1B8B17AB018B1BAB178B137B
:10046000053003179F0003133E21AB1B8B170317A7
:1004700090011008033C031C532A1130100784001C
:100480008317000895000313AB018B1BAB178B136D
:100490000317A3011508A4000313FE20AB1B8B1741
:1004A0000317900A392AC03003138B0483168C1665
:1004B00083128A110A12C82A0B080317900003132B
:1004C0008B13831603178C170C1400000000831283
:1004D000901F6D2A03138B1703170C087F3903191C
:1004E000AC2A90000D0891000F0892001008031329
:1004F0000C1E782A9900031711088D0012088F002E
:1005000003130B080317930003138B1383160317AE
:100510008C170C14000000008312931F922A0313FF
:100520008B1703170C0D0E0D7F390319AC2A9000A1
:100530000D0891000F089200100803130C1E9E2A4C
:100540009900031711088D0012088F008D0A0319F6
:100550008F0A03135C2A031703138A110A12CF2A86
:1005600003081F398300AC01193083169900A230AB
:100570009800903083129800FF30AD0083161F144E
:100580009F141F159F1107309C0083138312D429D9
:10059000D13003178D0001308F0003135C2A08301F
:1005A000031790000313AB018B1BAB178B13FA30AF
:1005B00003179F0003133E21AB1B8B170317900BF0
:1005C000D22A0313AD122D088316870083128716D3
:0405D000C82A6300D2
:02400E00323F3F
:00000001FF
;PIC16F877A
;CRC=CE4B  CREATED="19-Jul-24 23:54"
